:020000040000FA
:100000000C9463000C948B000C948B000C948B006C
:100010000C948B000C948B000C948B000C948B0034
:100020000C948B000C948B000C948B000C948B0024
:100030000C948B000C948B000C948B000C948B0014
:100040000C9465080C948B000C9433080C940D08E8
:100050000C948B000C948B000C948B000C948B00F4
:100060000C94AF080C948B000000000024002700C3
:100070002A0000000000250028002B0000000008D6
:10008000000201000003040700000000000000005F
:1000900000000000230026002900040404040404D6
:1000A0000404020202020202030303030303010227
:1000B00004081020408001020408102001020408F6
:1000C0001020130A2C0F11241FBECFEFD8E0DEBF83
:1000D000CDBF23E0A6EFB1E001C01D92A03FB20763
:1000E000E1F711E0A0E0B1E0E2EDF7E202C0059037
:1000F0000D92A63FB107D9F710E0C2E6D0E004C0E8
:100100002197FE010E94E411C136D107C9F70E9470
:10011000DF0A0C94DC130C94000008950895EF920C
:10012000FF920F931F93CF93C82F8B01E82EF12CD2
:1001300086E0C89FD0011124A759BC4F90967C93AC
:100140006E935F9781E091968C939197E091D6039F
:10015000F091D7038091D5038823C1F0309729F01F
:10016000C11103C0809185030995E091D803F091F6
:10017000D903309729F0B80180918503CC23E1F0B1
:10018000CF911F910F91FF90EF900895309719F044
:100190005C968C910995E091D803F091D903309742
:1001A00079F386E08E9DD0018F9DB00D1124A75963
:1001B000BC4FB8015C968C91CF911F910F91FF902D
:1001C000EF900994CF92DF92EF92FF920F931F93DB
:1001D00096E0899FF0011124E759FC4F11A2278D69
:1001E00030A12130310551F178F02230310509F488
:1001F00051C02330310509F452C01F910F91FF9077
:10020000EF90DF90CF9008956623B9F361E070E03E
:100210000E948F002FB7F8948091B4029091B5029C
:10022000A091B602B091B7022FBF8093C103909303
:10023000C203A093C303B093C403DFCF9FB7F89466
:10024000C090B402D090B502E090B602F090B70230
:100250009FBF0091C1031091C2032091C30330914D
:10026000C403C01AD10AE20AF30A0091D303109121
:10027000D40330E020E00C151D052E053F0550F499
:1002800062E070E01F910F91FF90EF90DF90CF90B0
:100290000C948F006111B1CF63E070E0F3CF70E098
:1002A00060E0F0CF0895AF92BF92CF92DF92EF92CD
:1002B000FF920F931F93CF93DF936C017B018B0110
:1002C000040F151FEB015E01AE18BF08C017D10760
:1002D00059F06991D601ED91FC910190F081E02DEA
:1002E000C6010995892B79F7C501DF91CF911F913F
:1002F0000F91FF90EF90DF90CF90BF90AF90089557
:10030000FC01538D448D252F30E0842F90E0821B1B
:10031000930B541710F0CF96089501970895FC01A0
:10032000918D828D981761F0A28DAE0FBF2FB11DF8
:100330005D968C91928D9F5F9F73928F90E0089550
:100340008FEF9FEF0895FC01918D828D981731F00A
:10035000828DE80FF11D858D90E008958FEF9FEF5E
:100360000895FC01918D228D892F90E0805C9F4F34
:10037000821B91098F739927089580EC92E00E9467
:10038000B10121E0892B09F420E0822F089580E05B
:1003900090E0892B29F00E94BD0181110C9400008E
:1003A0000895FC01A48DA80FB92FB11DA35ABF4F0A
:1003B0002C91848D90E001968F739927848FA68964
:1003C000B7892C93A089B1898C91837080648C93B8
:1003D000938D848D981306C00288F389E02D808167
:1003E0008F7D80830895EF92FF920F931F93CF9399
:1003F000DF93EC0181E0888F9B8D8C8D98131AC060
:10040000E889F989808185FF15C09FB7F894EE8946
:10041000FF896083E889F9898081837080648083A3
:100420009FBF81E090E0DF91CF911F910F91FF90EE
:10043000EF900895F62E0B8D10E00F5F1F4F0F7396
:100440001127E02E8C8D8E110CC00FB607FCFACF51
:10045000E889F989808185FFF5CFCE010E94D1011D
:10046000F1CFEB8DEC0FFD2FF11DE35AFF4FF08222
:100470009FB7F8940B8FEA89FB8980818062CFCF88
:10048000CF93DF93EC01888D8823B9F0AA89BB89CB
:10049000E889F9898C9185FD03C0808186FD0DC0B6
:1004A0000FB607FCF7CF8C9185FFF2CF808185FFD7
:1004B000EDCFCE010E94D101E9CFDF91CF91089518
:1004C000833081F028F4813099F08230A9F00895CA
:1004D0008730A9F08830C9F08430B1F48091800071
:1004E0008F7D03C0809180008F7780938000089576
:1004F00084B58F7784BD089584B58F7DFBCF8091BF
:10050000B0008F778093B00008958091B0008F7D08
:10051000F9CFCF93DF93282F30E0F901E458FF4F54
:100520008491F901E255FF4FD491F901E656FF4F4E
:10053000C491CC23A1F081110E946002EC2FF0E065
:10054000EE0FFF1FE057FF4FA591B491EC91ED2303
:1005500081E090E009F480E0DF91CF91089580E0A0
:1005600090E0FACF862F0C9489021F93CF93DF93EC
:10057000282F30E0F901E458FF4F8491F901E2554A
:10058000FF4FD491F901E656FF4FC491CC23A9F057
:10059000162F81110E946002EC2FF0E0EE0FFF1F7A
:1005A000EE58FF4FA591B4918FB7F894EC911111CB
:1005B00008C0D095DE23DC938FBFDF91CF911F91D0
:1005C0000895DE2BF8CF862F642F0C94B502CF93BD
:1005D000DF9390E0FC01E255FF4F249186569F4F38
:1005E000FC0184918823C9F090E0880F991FFC01D9
:1005F000E859FF4FA591B491FC01EE58FF4FC5910A
:10060000D49161110DC09FB7F8948C9120958223ED
:100610008C938881282328839FBFDF91CF910895F1
:10062000623051F49FB7F8943C91822F80958323D8
:100630008C93E8812E2BEFCF8FB7F894EC912E2B73
:100640002C938FBFEACF862F642F0C94E7023FB71D
:10065000F8948091A9029091AA02A091AB02B09166
:10066000AC0226B5A89B05C02F3F19F00196A11D2D
:10067000B11D3FBFBA2FA92F982F8827BC01CD01EC
:10068000620F711D811D911D42E0660F771F881F4B
:10069000991F4A95D1F708958F929F92AF92BF927A
:1006A000CF92DF92EF92FF924B015C010E942703F1
:1006B0006B017C010E9427036C197D098E099F093B
:1006C000683E734081059105A8F321E0821A9108E4
:1006D000A108B10888EEC80E83E0D81EE11CF11C09
:1006E00081149104A104B10429F7FF90EF90DF90E9
:1006F000CF90BF90AF909F908F9008952091370238
:10070000260F3327331F21323105ECF4209180026C
:10071000FC0190E080E0243069F082E00895A0912F
:1007200037022191AC01495E5D4FA40FB52FB11D79
:100730002C930196861798F380913702680F609387
:10074000370280E0089581E008951092800281E0F0
:1007500080937F0210925A0261E082E10E94B5020A
:1007600061E083E10E94B502E9EBF0E080818E7FD9
:10077000808380818D7F808388E48093B80085E4C6
:100780008093BC000895CF93DF9391E0909316027D
:100790008823B9F0C091B800D091BA008091BC0014
:1007A0008A7B8093BC0060E082E10E94B50260E039
:1007B00083E10E94B5020E94A503D093BA00C093C2
:1007C000B800DF91CF9108950895E091BF02809124
:1007D000BE02E81730F4F0E0EA50FE4F808190E06E
:1007E00008958FEF9FEF08959091BF028091BE0210
:1007F0002FEF3FEF981748F4E92FF0E0EA50FE4F53
:10080000208130E09F5F9093BF02C90108958091DD
:10081000BE029091BF02891B990B0895CF92DF927F
:10082000EF92FF920F931F93CF93DF937C01CB0145
:100830008A0120918602222389F0EB016B01C40E0C
:10084000D51ECC15DD0569F06991D701ED91FC91BC
:100850000190F081E02DC7010995F3CF642F0E942C
:100860007E03C801DF91CF911F910F91FF90EF9010
:10087000DF90CF900895CF93DF931F92CDB7DEB76F
:100880006983209186022223F9F02091BC02203254
:1008900058F021E030E0FC013383228390E080E0D7
:1008A0000F90DF91CF9108958091BD02E82FF0E085
:1008B000E957FD4F998190838F5F8093BD028093AC
:1008C000BC0281E090E0ECCF61E0CE0101960E9495
:1008D0007E03F7CFCF92DF92EF92FF920F931F9399
:1008E000CF93DF93FC01C48121E020938602C09363
:1008F000A7021092BD021092BC028385682B8DE581
:1009000093E00E943B04D091BC02D13208F092C027
:100910000E9427036B017C0180918002811165C0D8
:1009200082E08093800281E080937F028FEF80934A
:100930007E0210927D02D0937C02A7E8B2E0ECE543
:10094000F2E080E0D81385C010925B0280915B02D8
:10095000CC0FC82BC0935B0280915A02813009F002
:100960007CC010925A020E9427036B017C01809187
:100970005B028093BB008091820290918302A091E0
:100980008402B0918502892B8A2B8B2B99F00E94CF
:1009900027030091820210918302209184023091FA
:1009A00085026C197D098E099F090617170728070C
:1009B0003907E0F18091BC0083FDD9CF85EC8093AD
:1009C000BC000E9427036B017C0180918002823071
:1009D00009F445C080917E028F3F61F180917E02D3
:1009E000803241F180917E0225C0809182029091F7
:1009F0008302A0918402B0918502892B8A2B8B2BD4
:100A000009F48ACF0E942703009182021091830289
:100A100020918402309185026C197D098E099F090D
:100A2000061717072807390708F076CF809181024B
:100A30000E94C3031092BD021092BC021092860263
:100A4000DF91CF911F910F91FF90EF90DF90CF90AA
:100A500008959D9191938F5F75CF85EEB0CF809172
:100A6000820290918302A0918402B0918502892B29
:100A70008A2B8B2B09F4A9CF0E94270300918202B5
:100A80001091830220918402309185026C197D09B6
:100A90008E099F09061717072807390708F095CF11
:100AA000C5CF90E080E0089561E08AE00E94B50241
:100AB00060E08BE00E94B50268EE73E080E090E0B9
:100AC0000C944C030F931F93CF938C01C62F0E945D
:100AD0006A046C2F6460C8010E946A046C2F6B7FEB
:100AE000C8010E946A0483EC90E00197F1F7CF916E
:100AF0001F910F9108950F931F93CF93DF938C0154
:100B0000D62FC42F607F642B0E94620580E1D89F9E
:100B1000B00111246C2BC801DF91CF911F910F916F
:100B20000C94620540E061E080EE93E00E947B055A
:100B30008BE39FE10197F1F70895CF93DF93CDB752
:100B4000DEB728970FB6F894DEBF0FBECDBF98E092
:100B5000E9E1F1E0DE01119601900D929A95E1F73D
:100B60009091E903961710F46FEF690F262F30E08C
:100B7000220F331F41E050E04C0F5D1F240F351F43
:100B8000F9016081680F606840E080EE93E028968C
:100B90000FB6F894DEBF0FBECDBFDF91CF910C949E
:100BA0007B05CF93DF931092BF021092BE0210928A
:100BB000BD021092BC020E94A5038DE890E09093C4
:100BC000BB028093BA028EE890E09093B9028093C2
:100BD000B8021092E5038091E903823018F098E0A2
:100BE0009093E5039091EA03992339F0813029F439
:100BF0008091E50384608093E50362E370E080E028
:100C000090E00E944C036091EB0380EE93E00E9421
:100C10006A0468EE73E080E090E00E944C0360E3B9
:100C200080EE93E00E946205CBE4D6E4CE0101970A
:100C3000F1F760E380EE93E00E9462052197F1F7FF
:100C400060E380EE93E00E94620583E592E0019705
:100C5000F1F760E280EE93E00E9462056091E503A7
:100C6000606240E080EE93E00E947B0584E0809328
:100C7000E60340E06CE080EE93E00E947B050E947A
:100C8000920582E08093E70340E066E080EE93E027
:100C90000E947B0540E062E080EE93E00E947B05CD
:100CA0008BE39FE10197F1F7DF91CF91089541E048
:100CB0000E947B0581E090E00895FB0101900020F7
:100CC000E9F73197AF01461B570BDC01ED91FC9121
:100CD0000280F381E02D09948F929F92AF92BF9290
:100CE0000F931F93CF93DF93CDB7DEB7A1970FB6C6
:100CF000F894DEBF0FBECDBF19A2423008F44AE01F
:100D00008E010F5D1F4F842E912CB12CA12CA501BB
:100D100094010E94A311E62FB901CA01EA3004F53B
:100D2000E05DD801EE938D01232B242B252B79F741
:100D300090E080E0109729F0BD0180EC92E00E94E5
:100D40005D06A1960FB6F894DEBF0FBECDBFDF9152
:100D5000CF911F910F91BF90AF909F908F9008956A
:100D6000E95CDFCF4F925F926F927F928F929F925A
:100D7000AF92BF92CF92DF92EF92FF920F931F93A9
:100D8000CF936B017C01742EAC019B010E949E11DC
:100D90006BE571E0811126C046015701E894B7F870
:100DA0002FEF3FEF4FE75FE7C501B4010E949E11AF
:100DB00081110CC02FEF3FEF4FE75FE7C501B40192
:100DC0000E94300F6FE571E0181664F02FEF3FEFCF
:100DD0004FE75FE4C701B6010E9499111816ACF401
:100DE00063E671E080EC92E0CF911F910F91FF904C
:100DF000EF90DF90CF90BF90AF909F908F907F90BB
:100E00006F905F904F900C945D062FEF3FEF4FE790
:100E10005FECC701B6010E94300F87FDE1CF20E0F3
:100E200030E0A901C701B6010E94300F10E000E0D8
:100E300087FF0AC06DE280EC92E00E94F3018C0112
:100E4000F7FAF094F7F8F094C0E060E070E080E02A
:100E50009FE37C1641F020E030E040E251E40E9444
:100E6000F810CF5FF6CFA70196010E948C102B01DE
:100E70003C010E946A114B015C014AE00E946C0631
:100E80007C01E00EF11ECC23C1F1C501B4010E942A
:100E9000350F9B01AC01C301B2010E948B104B01C5
:100EA0005C016EE280EC92E00E94F301E80EF91E14
:100EB000C15018F120E030E040E251E4C501B40136
:100EC0000E94960F2B013C010E946A114B01B12C2C
:100ED000A12C4AE0C501B4010E946C06E80EF91E7F
:100EE000C501B4010E94350F9B01AC01C301B201E1
:100EF0000E948B104B015C01DBCFC701CF911F918A
:100F00000F91FF90EF90DF90CF90BF90AF909F90A8
:100F10008F907F906F905F904F900895FC0180813B
:100F20009181009711F00C9486120895EF92FF9230
:100F30000F931F93CF93DF93EC017B018A0188818C
:100F40009981009729F02A813B812417350788F47D
:100F5000B8016F5F7F4F0E940F13009791F0998344
:100F600088831B830A832C813D81232B11F4FC0190
:100F700010821D830C83B701888199810E94D5134B
:100F80000CC088819981009711F00E948612198205
:100F900018821D821C821B821A82CE01DF91CF91A2
:100FA0001F910F91FF90EF90089585ED8093BC0005
:100FB0008091820290918302A0918402B091850277
:100FC0000796A11DB11D23E0B695A7959795879526
:100FD0002A95D1F72091BC0024FD03C01092800215
:100FE0000895409182025091830260918402709131
:100FF0008502452B462B472B69F30097A105B105C8
:1010000041F025E32A95F1F700000197A109B10904
:10101000E1CF809181020C94C3031F920F920FB60F
:101020000F9211242F933F934F935F936F937F936E
:101030008F939F93AF93BF93EF93FF9380EC92E0D6
:101040000E94D101FF91EF91BF91AF919F918F913C
:101050007F916F915F914F913F912F910F900FBEB4
:101060000F901F9018951F920F920FB60F92112498
:101070002F938F939F93EF93FF93E091D002F09182
:10108000D1028081E091D602F091D70282FD1BC08F
:1010900090818091D9028F5F8F732091DA0282173D
:1010A00041F0E091D902F0E0E054FD4F958F80933C
:1010B000D902FF91EF919F918F912F910F900FBEC9
:1010C0000F901F9018958081F4CF1F920F920FB64A
:1010D0000F9211242F933F938F939F93AF93BF93BE
:1010E0008091B4029091B502A091B602B091B7027E
:1010F0003091A80223E0230F2D3758F50196A11D4A
:10110000B11D2093A8028093B4029093B502A093DE
:10111000B602B093B7028091A9029091AA02A09161
:10112000AB02B091AC020196A11DB11D8093A90242
:101130009093AA02A093AB02B093AC02BF91AF917F
:101140009F918F913F912F910F900FBE0F901F9005
:10115000189526E8230F0296A11DB11DD2CF1F922C
:101160000F920FB60F9211242F933F934F935F93DB
:101170006F937F938F939F93AF93BF93EF93FF935F
:101180008091B900887F803609F44AC0F0F5883232
:1011900009F4A7C018F5803109F49BC0B8F488237E
:1011A00009F4F9C0883009F494C0FF91EF91BF9120
:1011B000AF919F918F917F916F915F914F913F91EF
:1011C0002F910F900FBE0F901F901895883109F442
:1011D00088C0803251F780937E0214C0803409F4B5
:1011E0009DC040F48033B9F38833F9F680937E02D2
:1011F00085ECB0C0803509F485C0883509F496C007
:10120000883499F60E94D507D0CF883909F48CC06C
:1012100038F5883729F050F4883611F0803729F6F0
:1012200083E0809380021092590257C0883809F4F5
:101230007BC0803919F0803809F0B7CF809159020E
:10124000803208F071C0E091590281E08E0F8093E6
:1012500059028091BB00F0E0E75CFD4F80833DC008
:10126000803B39F0E0F4803A09F479C0883A09F01B
:101270009CCF84E080938002109238021092370253
:10128000E091BA02F091BB02099580913702811179
:101290000FC081E0809337021092170209C0803C92
:1012A00009F4A6CF883C09F4A3CF883B09F07DCF91
:1012B000E091380281E08E0F80933802F0E0E95E21
:1012C000FD4F80818093BB0090913802809137025E
:1012D00029C080915B028093BB0085EC8093BC00A9
:1012E00064CF90917D0280917C02981758F5E0912F
:1012F0007D0281E08E0F80937D02F0E0E45AFD4F85
:101300008081E9CFE0917D0281E08E0F80937D02A4
:101310008091BB00F0E0E45AFD4F808390917D0204
:1013200080917C029817C8F285E8D8CFE0917D02C1
:1013300081E08E0F80937D028091BB00F0E0E45A43
:10134000FD4F808380917F0281115CCF81E080938B
:101350005A0284EA8093BC001092800226CF85EC6A
:101360008093BC001092800280915902803230F448
:10137000E0915902F0E0E75CFD4F10826091590264
:1013800070E0E091B802F091B90289E392E009952A
:10139000109259020ACF10927E0234CFCF92DF9280
:1013A000EF92FF920F931F93E82FF92F05C0015082
:1013B00011092109310961F1908196239417B9F33C
:1013C00005C0015011092109310911F190819623BD
:1013D0009413F7CFC12CD12CE12CF12C0AC08FEF44
:1013E000C81AD80AE80AF80A0C151D052E053F058B
:1013F00079F080818623841791F36C2D7D2D8E2DBD
:101400009F2D1F910F91FF90EF90DF90CF90089547
:1014100060E070E080E090E01F910F91FF90EF900E
:10142000DF90CF9008951092C3021092C20288EE0E
:1014300093E0A0E0B0E08093C4029093C502A09333
:10144000C602B093C70225E231E03093C102209377
:10145000C00225EC30E03093CD022093CC0224EC86
:1014600030E03093CF022093CE0220EC30E0309376
:10147000D1022093D00221EC30E03093D3022093AC
:10148000D20222EC30E03093D5022093D40226EC35
:1014900030E03093D7022093D6021092D9021092F6
:1014A000DA021092DB021092DC02109260031092BA
:1014B0005F038093610390936203A0936303B093EF
:1014C000640387E391E090935E0380935D03109241
:1014D000E3031092E20383E591E09093E1038093AC
:1014E000E0038FE38093E40384E18093E80384E0E6
:1014F0008093E9031092EA0388E08093EB03109253
:10150000DB031092DA031092DD031092DC031092D9
:10151000DF031092DE0344E050E067E671E08AEDFD
:1015200093E00E94960710926B0310926F03109243
:101530006E031092700389E491E090936A038093A4
:101540006903E5E8F3E0108214821382158236966F
:1015500083E0E13CF807B9F783E091E09093CC0396
:101560008093CB0380E091E09093CE038093CD03F2
:1015700084E08093CF0383E08093D00387E091E001
:101580009093CA038093C9038AE090E09093D203BA
:101590008093D10384EF91E09093D4038093D3039D
:1015A0001092D7031092D6031092C5031092C6036F
:1015B0001092C7031092C8031092D5030895CF93D9
:1015C000DF93CDB7DEB7A2970FB6F894DEBF0FBE9C
:1015D000CDBF789484B5826084BD84B5816084BDBC
:1015E00085B5826085BD85B5816085BD80916E00C1
:1015F000816080936E0010928100809181008260F2
:10160000809381008091810081608093810080912E
:1016100080008160809380008091B100846080931D
:10162000B1008091B00081608093B00080917A0019
:10163000846080937A0080917A00826080937A003F
:1016400080917A00816080937A0080917A0080682E
:1016500080937A001092C10061E08AE00E94E70264
:1016600061E08BE00E94E70261E08CE00E94E7020B
:101670000E94D1050E94D10588E08093EB0360E0D1
:1016800080EE93E00E946A046CE671E080EE93E0E5
:101690000E945D0661E080E00E949D0565E771E0C3
:1016A00080EE93E00E945D0662E080E00E949D056E
:1016B00060ED77E080E090E00E944C030E9492058C
:1016C0000E94540564E170E080E090E00E944C03C9
:1016D000E091D002F091D10282E08083E091CC02CF
:1016E000F091CD021082E091CE02F091CF028FEC0A
:1016F00080831092D802E091D402F091D50286E066
:101700008083E091D202F091D30280818061808356
:10171000E091D202F091D302808188608083E091D1
:10172000D202F091D302808180688083E091D2025E
:10173000F091D30280818F7D808361E083E00E94FD
:10174000E70260E082E00E94E702412C512C320166
:1017500043949E01275E3F4F3AA329A31E013FE118
:10176000230E311C81E480937C0080917A00806498
:1017700080937A0080917A0086FDFCCF809178007A
:1017800060917900762F682F072E000C880B990B3B
:101790000E94370F20E030E040E85AE30E94960FA5
:1017A00020E030E44CE955E40E94960F20E030E060
:1017B00040E251E40E94F81042E00E94B2066CE858
:1017C00071E080EC92E00E945D0660E083E00E94A0
:1017D000B50283E090E00197F1F761E083E00E94B9
:1017E000B50283E290E00197F1F760E083E00E94A8
:1017F000B502E0EBF0E06491ECE9F0E0E491F0E0B8
:10180000EE0FFF1FE057FF4F8591949100E412E423
:101810002FE030E0462F0E94CE0961157105810549
:10182000910529F06F5F7F4F8F4F9F4F9F7024E985
:1018300030E040E050E00E94C511243131054105FF
:1018400051059CF4CA01B9010E94370F42E00E9481
:10185000B2066CE871E080EC92E00E945D0664EFF5
:1018600071E080E090E00E944C0364E670E080E06C
:1018700090E00E944C0381E08093D5038FB7F894E9
:101880004091B4025091B5026091B6027091B702D6
:101890008FBF8091C5039091C603A091C703B091FB
:1018A000C803481B590B6A0B7B0B8091D1039091A5
:1018B000D203B0E0A0E084179507A607B70708F0A9
:1018C00014C110E08091CF03181760F4E091CB03AE
:1018D000F091CC03E10FF11D62E080810E94E702EC
:1018E0001F5FF0CFA12C8091D003A81608F061C033
:1018F000EA2CF12CE091CD03F091CE03EE0DFF1D0B
:1019000061E080810E94E702E091CD03F091CE0377
:10191000EE0DFF1D60E080810E94B502D301C2017F
:101920000A2C04C0880F991FAA1FBB1F0A94D2F764
:101930004C016C01C094D094B12C8091CF03B816A7
:1019400008F50B2D10E0E091CB03F091CC03E00FF4
:10195000F11F80810E9489020C5F1F4F000F111F31
:10196000F801E759FC4F892B41F480819181882946
:10197000992991838083B394E0CF808191818C21D8
:101980009D21F7CFE091CD03F091CE03EE0DFF1D29
:1019900061E080810E94B5028091CD039091CE03D9
:1019A000E80EF91E60E0F70180810E94E702A3942F
:1019B0009ACF99E6E92E93E0F92E85EA93E0870124
:1019C000F801278D30A1232B31F4148E2FEF3FEF38
:1019D000368F258F11A20A5F1F4F8017910781F75D
:1019E000D12C8091CF03D81608F053C0C12C8D2C78
:1019F000912C880C991CC4018F589C4F4C0120914C
:101A0000D003C21608F043C0F401608171810C2C30
:101A100002C0769567950A94E2F7D29E9001112450
:101A20002C0D311DE9E6F3E080E0458D568D24173D
:101A3000350709F40FC28F5F36968A30B1F760FF21
:101A400024C0E9E6F3E090E080E0448D411118C045
:101A5000E091C903F091CA03E20FF31F408156E001
:101A6000589FF001599FF00D1124E759FC4F448F06
:101A7000368F258F10A2178E61E00E94E20005C00C
:101A8000019636968A30910501F7C394B8CFD39466
:101A9000A8CF80E0F70191A19111892FF6E0EF0E18
:101AA000F11C0E151F05B1F79FB7F8944091B402D1
:101AB0005091B5026091B6027091B7029FBF4093FA
:101AC000C5035093C6036093C7037093C80388236C
:101AD00061F080918A03882341F08091880390917E
:101AE0008903F0908503019719F01092D503F12C2A
:101AF0008E010F5F1F4F6801F8011182108213825F
:101B000012821582148250E040E06EE871E0C80154
:101B10000E9496070A5F1F4F29A13AA102171307D7
:101B200059F7F1101CC0CE0143960E948E07CE01DA
:101B30000D960E948E07CE0107960E948E07C60161
:101B40000E948E0780E090E0892B09F40BCE0E9462
:101B5000BD01882309F406CE0E94000003CE009147
:101B6000B2021091B30262E0802F0E949D0541E015
:101B70006F2D80EE93E00E947B0564E670E080E0CC
:101B800090E00E944C033AE2F31619F053E2F5128A
:101B900074C01092B3021092B2020E9454050E94C7
:101BA00092058091B2029091B302049709F0BBCFE5
:101BB0008091B0029091B102181619060CF016C16E
:101BC0008091AE029091AF0201969093AF02809304
:101BD000AE021092B1021092B0021092B3021092B3
:101BE000B2020E94920562E080E00E949D056FE8CB
:101BF00071E080EE93E00E945D060E94920564EF22
:101C000071E080E090E00E944C030E9454058091B6
:101C1000AE029091AF02049709F085CF1092AF0207
:101C20001092AE020E94920561E080E00E949D0544
:101C30006FEC71E080EE93E00E945D0662E080E070
:101C40000E949D0564EE71E080EE93E00E945D06C7
:101C500061E08CE00E94B50268EE73E080E090E005
:101C60000E944C0360E08CE00E94B50268EE73E0D5
:101C700080E090E00E944C03EBCF8091DE039091D6
:101C8000DF030817190730F4E091DA03F091DB0362
:101C9000309779F51092AD02EDEAF2E020812F1134
:101CA00087C01A8E198E1C8E1B8E1E8E1D8EFF8E67
:101CB00018A2F10101900020E9F731978F01021974
:101CC0001309B8016F5F7F4F90E080E00E940F130F
:101CD000009791F09A8F898F1C8F0B8F2D8D3E8DE1
:101CE000232B09F444C01E8F0D8FB1010E94D51320
:101CF0000DC0E00FF11FD2CF898D9A8D0097D1F5DD
:101D00001A8E198E1E8E1D8E1C8E1B8E0091B20295
:101D10001091B302F6E0F09F7001F19FF00C1124D6
:101D2000EC0CFD1CF70180819181009741F1698DD8
:101D30007A8D6115710509F1428153812D8D3E8D9A
:101D400042175307D0F00E94D5138D8D9E8DF70159
:101D5000958384831E8E1D8ECE0149960E948E0728
:101D60000F5F1F4F1093B3020093B2021ACFFC0112
:101D70001082B9CF0E948612C3CF0E94861226E03D
:101D8000209FF001219FF00D1124EC0DFD1D898D88
:101D90009A8D918380838B8D9C8D938382838D8D8F
:101DA0009E8D958384831A8E198E1C8E1B8ED2CFA6
:101DB0000817190730F4E091DA03F091DB0330974C
:101DC00091F41092AD02EDEAF2E080818F1509F4F2
:101DD000E8CE8091B0029091B10201969093B10249
:101DE0008093B002BDCFE00FF11FEFCF892B09F038
:101DF0000ECF1092B3021092B2020E94920561E0DF
:101E000080E00E949D0560EB71E080EE93E00E940F
:101E10005D0662E085E00E949D0564EC71E080EE65
:101E200093E00E945D0660E08AE00E94B50261E0F6
:101E30008BE00E94B50268EE73E080E090E00E94C3
:101E40004C030E94920564EF71E080E090E00E94F4
:101E50004C03DDCE617011CE8AED93E00C948E07B9
:101E60000E94720F08F481E00895E89409C097FB7E
:101E70003EF490958095709561957F4F8F4F9F4F61
:101E80009923A9F0F92F96E9BB279395F6958795A5
:101E900077956795B795F111F8CFFAF4BB0F11F468
:101EA00060FF1BC06F5F7F4F8F4F9F4F16C088230F
:101EB00011F096E911C0772321F09EE8872F762F45
:101EC00005C0662371F096E8862F70E060E02AF086
:101ED0009A95660F771F881FDAF7880F9695879572
:101EE00097F90895990F0008550FAA0BE0E8FEEF47
:101EF00016161706E807F907C0F012161306E407CE
:101F0000F50798F0621B730B840B950B39F40A26C6
:101F100061F0232B242B252B21F408950A2609F4A4
:101F2000A140A6958FEF811D811D08950E94A90FE4
:101F30000C941A100E940C1038F00E94131020F01C
:101F4000952311F00C9403100C94091011240C9497
:101F50004E100E942B1070F3959FC1F3950F50E027
:101F6000551F629FF001729FBB27F00DB11D639F4B
:101F7000AA27F00DB11DAA1F649F6627B00DA11DF1
:101F8000661F829F2227B00DA11D621F739FB00D97
:101F9000A11D621F839FA00D611D221F749F332707
:101FA000A00D611D231F849F600D211D822F762FA0
:101FB0006A2F11249F5750409AF0F1F088234AF07D
:101FC000EE0FFF1FBB1F661F771F881F91505040E9
:101FD000A9F79E3F510580F00C9403100C944E100D
:101FE0005F3FE4F3983ED4F3869577956795B79570
:101FF000F795E7959F5FC1F7FE2B880F911D96958A
:10200000879597F9089597F99F6780E870E060E0F9
:1020100008959FEF80EC089500240A941616170681
:1020200018060906089500240A94121613061406C9
:1020300005060895092E0394000C11F4882352F02C
:10204000BB0F40F4BF2B11F460FF04C06F5F7F4FE4
:102050008F4F9F4F089557FD9058440F551F59F0CB
:102060005F3F71F04795880F97FB991F61F09F3F85
:1020700079F087950895121613061406551FF2CFAE
:102080004695F1DF08C0161617061806991FF1CFFE
:1020900086957105610508940895E894BB27662725
:1020A0007727CB0197F908952F923F924F925F9235
:1020B0006F927F928F929F92AF92BF92CF92DF9258
:1020C000EF92FF920F931F93CF93DF93CDB7DEB7BD
:1020D000CA1BDB0B0FB6F894DEBF0FBECDBF099451
:1020E0002A88398848885F846E847D848C849B84A8
:1020F000AA84B984C884DF80EE80FD800C811B81B6
:10210000AA81B981CE0FD11D0FB6F894DEBF0FBEE4
:10211000CDBFED0108955058BB27AA270E94A310F8
:102120000C941A100E940C1038F00E94131020F02A
:1021300039F49F3F19F426F40C9409100EF4E0953D
:10214000E7FB0C940310E92F0E942B1058F3BA17E9
:10215000620773078407950720F079F4A6F50C94BD
:102160004D100EF4E0950B2EBA2FA02D0B01B901E6
:1021700090010C01CA01A0011124FF27591B99F0FD
:10218000593F50F4503E68F11A16F040A22F232F09
:10219000342F4427585FF3CF469537952795A79559
:1021A000F0405395C9F77EF41F16BA0B620B730B00
:1021B000840BBAF09150A1F0FF0FBB1F661F771F71
:1021C000881FC2F70EC0BA0F621F731F841F48F426
:1021D000879577956795B795F7959E3F08F0B0CFAF
:1021E0009395880F08F09927EE0F97958795089596
:1021F0000E940C110C941A100E94131058F00E94A7
:102200000C1040F029F45F3F29F00C940310511199
:102210000C944E100C9409100E942B1068F3992313
:10222000B1F3552391F3951B550BBB27AA276217D2
:102230007307840738F09F5F5F4F220F331F441FDF
:10224000AA1FA9F335D00E2E3AF0E0E832D0915013
:102250005040E695001CCAF72BD0FE2F29D0660F00
:10226000771F881FBB1F261737074807AB07B0E843
:1022700009F0BB0B802DBF01FF2793585F4F3AF049
:102280009E3F510578F00C9403100C944E105F3F64
:10229000E4F3983ED4F3869577956795B795F795CF
:1022A0009F5FC9F7880F911D9695879597F90895B7
:1022B000E1E0660F771F881FBB1F62177307840753
:1022C000BA0720F0621B730B840BBA0BEE1F88F762
:1022D000E09508950E94331088F09F5798F0B92F29
:1022E0009927B751B0F0E1F0660F771F881F991F4B
:1022F0001AF0BA95C9F714C0B13091F00E944D1090
:10230000B1E008950C944D10672F782F8827B85F9F
:1023100039F0B93FCCF3869577956795B395D9F7A2
:102320003EF490958095709561957F4F8F4F9F4FAC
:1023300008950E94720F08F48FEF08950E94720FA3
:10234000880B990B0895A1E21A2EAA1BBB1BFD0155
:102350000DC0AA1FBB1FEE1FFF1FA217B307E40784
:10236000F50720F0A21BB30BE40BF50B661F771FDC
:10237000881F991F1A9469F76095709580959095BC
:102380009B01AC01BD01CF010895052E97FB1EF402
:1023900000940E94DC1157FD07D00E94A31107FC96
:1023A00003D04EF40C94DC11509540953095219556
:1023B0003F4F4F4F5F4F0895909580957095619571
:1023C0007F4F8F4F9F4F0895EE0FFF1F0590F491A1
:1023D000E02D09940F931F93CF93DF9382309105E3
:1023E00010F482E090E0E091EE03F091EF0330E032
:1023F00020E0B0E0A0E0309799F42115310509F410
:102400004AC0281B390B24303105D8F58A819B81BD
:102410006115710589F1FB0193838283FE0111C06F
:10242000408151810281138148175907E0F0481714
:10243000590799F4109761F012960C93129713961E
:102440001C933296CF01DF91CF911F910F91089588
:102450000093EE031093EF03F4CF2115310551F0F3
:102460004217530738F0A901DB019A01BD01DF01D2
:10247000F801C1CFEF01F9CF9093EF038093EE0302
:10248000CDCFFE01E20FF31F8193919322503109CA
:1024900039832883D7CF2091EC033091ED03232B90
:1024A00041F420911501309116013093ED032093F2
:1024B000EC0320911301309114012115310541F4F1
:1024C0002DB73EB74091170150911801241B350BD1
:1024D000E091EC03F091ED03E217F307A0F42E1B5B
:1024E0003F0B2817390778F0AC014E5F5F4F241778
:1024F000350748F04E0F5F1F5093ED034093EC03F8
:10250000819391939FCFF0E0E0E09CCFCF93DF9356
:102510000097E9F0FC01329713821282A091EE033A
:10252000B091EF03ED0130E020E01097A1F420819D
:102530003181820F931F2091EC033091ED03281716
:10254000390709F061C0F093ED03E093EC03DF91EC
:10255000CF910895EA01CE17DF07E8F54A815B8144
:102560009E0141155105B1F7E901FB83EA834991C9
:102570005991C40FD51FEC17FD0761F4808191813B
:102580000296840F951FE901998388838281938144
:102590009B838A83F0E0E0E012968D919C911397E3
:1025A0000097B9F52D913C911197CD010296820FBC
:1025B000931F2091EC033091ED032817390739F66A
:1025C000309751F51092EF031092EE03B093ED03A4
:1025D000A093EC03BCCFD383C28340815181840F8D
:1025E000951FC817D90761F44E5F5F4F88819981A5
:1025F000480F591F518340838A819B819383828333
:102600002115310509F0B0CFF093EF03E093EE030D
:102610009ECFFD01DC01C0CF13821282D7CFB0E084
:10262000A0E0E5E1F3E10C9456108C01009751F421
:10263000CB010E94EA118C01C801CDB7DEB7E0E101
:102640000C947210FC01E60FF71F9C012250310917
:10265000E217F30708F49DC0D901CD91DC911197E1
:10266000C617D70798F0C530D10530F3CE010497CF
:102670008617970708F3C61BD70B2297C193D193F0
:102680006D937C93CF010E948612D6CF5B01AC1A6A
:10269000BD0A4C018C0E9D1EA091EE03B091EF037C
:1026A000512C412CF12CE12C109731F58091EC0349
:1026B0009091ED038815990509F05CC04616570600
:1026C00008F058C08091130190911401009741F4D3
:1026D0008DB79EB74091170150911801841B950B3F
:1026E000E817F90708F055C0F093ED03E093EC0309
:1026F000F90171836083A0CF8D919C9111971296FF
:102700006C90129713967C901397A815B90559F5FC
:102710006C0142E0C40ED11CCA14DB0420F1AC01F0
:102720004A195B09DA011296159780F0628273826A
:1027300051834083D9016D937C93E114F10471F0CE
:10274000D7011396FC93EE93129776CF22968C0FB7
:102750009D1FF90191838083F301EFCFF093EF0385
:10276000E093EE0369CF4816590608F42C017D0169
:10277000D3019ACFCB010E94EA117C01009749F066
:10278000AE01B8010E94CC13C8010E9486128701D5
:1027900053CF10E000E050CFFB01DC0102C00190FC
:1027A0000D9241505040D8F70895FB01DC01019093
:1027B0000D920020E1F7089510E0C2E6D0E004C0D9
:1027C000FE010E94E4112196C336D107C9F7F8949F
:1027D000FFCF030405060708093132333435363795
:1027E00038392A30230000F0038000000040001434
:1027F00000540000000000F301530180014002B1C9
:10280000018F01A301000000003B040E045105E408
:10281000030704F403E503000000002303E302B20E
:10282000020000000057065301510552016E616E0F
:1028300000696E66006F7666003130313900576589
:102840006C636F6D652100456E7465722050696E12
:1028500020546F20556E6C6F636B203A29000D0A6F
:10286000002020202057726F6E6720506173732103
:102870002054727920416761696E21212020202037
:10288000200020202020202057656C636F6D65217B
:1028900020202020200020446F6F72204F70656E32
:1028A00000202020205741524E494E472020212110
:1028B00021212020200020202041636365737320A4
:0828C00044656E6965640000C7
:107E0000112484B714BE81FFF0D085E080938100F7
:107E100082E08093C00088E18093C10086E0809377
:107E2000C20080E18093C4008EE0C9D0259A86E02C
:107E300020E33CEF91E0309385002093840096BBD3
:107E4000B09BFECF1D9AA8958150A9F7CC24DD24C4
:107E500088248394B5E0AB2EA1E19A2EF3E0BF2EE7
:107E6000A2D0813461F49FD0082FAFD0023811F036
:107E7000013811F484E001C083E08DD089C08234E0
:107E800011F484E103C0853419F485E0A6D080C0E4
:107E9000853579F488D0E82EFF2485D0082F10E0AE
:107EA000102F00270E291F29000F111F8ED06801E7
:107EB0006FC0863521F484E090D080E0DECF843638
:107EC00009F040C070D06FD0082F6DD080E0C81688
:107ED00080E7D80618F4F601B7BEE895C0E0D1E017
:107EE00062D089930C17E1F7F0E0CF16F0E7DF06D8
:107EF00018F0F601B7BEE89568D007B600FCFDCFD4
:107F0000A601A0E0B1E02C9130E011968C91119780
:107F100090E0982F8827822B932B1296FA010C0160
:107F200087BEE89511244E5F5F4FF1E0A038BF0790
:107F300051F7F601A7BEE89507B600FCFDCF97BE46
:107F4000E89526C08437B1F42ED02DD0F82E2BD052
:107F50003CD0F601EF2C8F010F5F1F4F84911BD097
:107F6000EA94F801C1F70894C11CD11CFA94CF0C13
:107F7000D11C0EC0853739F428D08EE10CD085E9AC
:107F80000AD08FE07ACF813511F488E018D01DD067
:107F900080E101D065CF982F8091C00085FFFCCF94
:107FA0009093C60008958091C00087FFFCCF809118
:107FB000C00084FD01C0A8958091C6000895E0E648
:107FC000F0E098E1908380830895EDDF803219F02E
:107FD00088E0F5DFFFCF84E1DECF1F93182FE3DFCA
:107FE0001150E9F7F2DF1F91089580E0E8DFEE27F6
:047FF000FF270994CA
:027FFE00040479
:00000001FF
